{
  "contractName": "PeetPay",
  "abi": [
    {
      "inputs": [],
      "stateMutability": "nonpayable",
      "type": "constructor"
    },
    {
      "anonymous": false,
      "inputs": [
        {
          "indexed": true,
          "internalType": "address",
          "name": "_from",
          "type": "address"
        },
        {
          "indexed": false,
          "internalType": "bool",
          "name": "enabled",
          "type": "bool"
        }
      ],
      "name": "BonusStateChange",
      "type": "event"
    },
    {
      "anonymous": false,
      "inputs": [
        {
          "indexed": true,
          "internalType": "address",
          "name": "_from",
          "type": "address"
        },
        {
          "indexed": false,
          "internalType": "uint256",
          "name": "deposit",
          "type": "uint256"
        },
        {
          "indexed": false,
          "internalType": "uint256",
          "name": "_value",
          "type": "uint256"
        },
        {
          "indexed": false,
          "internalType": "uint256",
          "name": "currentBonus",
          "type": "uint256"
        }
      ],
      "name": "PriceEstimated",
      "type": "event"
    },
    {
      "anonymous": false,
      "inputs": [
        {
          "indexed": false,
          "internalType": "address",
          "name": "",
          "type": "address"
        },
        {
          "indexed": false,
          "internalType": "uint256",
          "name": "",
          "type": "uint256"
        }
      ],
      "name": "Received",
      "type": "event"
    },
    {
      "inputs": [],
      "name": "uniswapRouter",
      "outputs": [
        {
          "internalType": "contract IUniswapV2Router02",
          "name": "",
          "type": "address"
        }
      ],
      "stateMutability": "view",
      "type": "function",
      "constant": true
    },
    {
      "stateMutability": "payable",
      "type": "receive",
      "payable": true
    },
    {
      "inputs": [
        {
          "internalType": "uint256",
          "name": "price",
          "type": "uint256"
        }
      ],
      "name": "setMinPricePTE",
      "outputs": [],
      "stateMutability": "payable",
      "type": "function",
      "payable": true
    },
    {
      "inputs": [
        {
          "internalType": "address",
          "name": "withdrawWallet",
          "type": "address"
        }
      ],
      "name": "withdraw",
      "outputs": [],
      "stateMutability": "payable",
      "type": "function",
      "payable": true
    },
    {
      "inputs": [
        {
          "internalType": "address",
          "name": "withdrawWallet",
          "type": "address"
        },
        {
          "internalType": "address",
          "name": "tokenAddr",
          "type": "address"
        }
      ],
      "name": "withdrawSpecificToken",
      "outputs": [],
      "stateMutability": "payable",
      "type": "function",
      "payable": true
    },
    {
      "inputs": [
        {
          "internalType": "bool",
          "name": "enable",
          "type": "bool"
        }
      ],
      "name": "setBonusSystemState",
      "outputs": [],
      "stateMutability": "payable",
      "type": "function",
      "payable": true
    },
    {
      "inputs": [
        {
          "internalType": "uint256",
          "name": "_amount",
          "type": "uint256"
        }
      ],
      "name": "transferToken",
      "outputs": [],
      "stateMutability": "payable",
      "type": "function",
      "payable": true
    },
    {
      "inputs": [],
      "name": "getCurrentSoldedPTEAmount",
      "outputs": [
        {
          "internalType": "uint256",
          "name": "amount",
          "type": "uint256"
        }
      ],
      "stateMutability": "view",
      "type": "function",
      "constant": true
    },
    {
      "inputs": [],
      "name": "getCurrentSaleBonus",
      "outputs": [
        {
          "internalType": "uint256",
          "name": "bonusPercent",
          "type": "uint256"
        }
      ],
      "stateMutability": "view",
      "type": "function",
      "constant": true
    }
  ],
  "bytecode": "0x608060405260006003556001600460006101000a81548160ff021916908315150217905550600060055534801561003557600080fd5b5033600160006101000a81548173ffffffffffffffffffffffffffffffffffffffff021916908373ffffffffffffffffffffffffffffffffffffffff160217905550737a250d5630b4cf539739df2c5dacb4c659f2488d6000806101000a81548173ffffffffffffffffffffffffffffffffffffffff021916908373ffffffffffffffffffffffffffffffffffffffff1602179055506000670de0b6b3a76400009050602881026005819055506002604051806060016040528060008152602001603284028152602001600581525090806001815401808255809150506001900390600052602060002090600302016000909190919091506000820151816000015560208201518160010155604082015181600201555050600260405180606001604052806032840281526020016064840281526020016004815250908060018154018082558091505060019003906000526020600020906003020160009091909190915060008201518160000155602082015181600101556040820151816002015550506002604051806060016040528060648402815260200160c8840281526020016003815250908060018154018082558091505060019003906000526020600020906003020160009091909190915060008201518160000155602082015181600101556040820151816002015550506002604051806060016040528060c8840281526020016103e884028152602001600281525090806001815401808255809150506001900390600052602060002090600302016000909190919091506000820151816000015560208201518160010155604082015181600201555050600260405180606001604052806103e8840281526020016107d084028152602001600181525090806001815401808255809150506001900390600052602060002090600302016000909190919091506000820151816000015560208201518160010155604082015181600201555050600260405180606001604052806107d084028152602001620186a08402815260200160008152509080600181540180825580915050600190039060005260206000209060030201600090919091909150600082015181600001556020820151816001015560408201518160020155505050611973806103846000396000f3fe60806040526004361061007f5760003560e01c80639fc71b311161004e5780639fc71b31146101f3578063ae94e90814610221578063be31c3ca14610285578063c250f5cc146102b0576100fa565b80634b06c049146100ff57806351cff8d91461012a578063689c8e721461016e578063735de9f71461019c576100fa565b366100fa577f88a5966d370b9919b20f3e2c13ff65706f196a4e32cc2c12bf57088f885258743334604051808373ffffffffffffffffffffffffffffffffffffffff1673ffffffffffffffffffffffffffffffffffffffff1681526020018281526020019250505060405180910390a16100f8346102e0565b005b600080fd5b34801561010b57600080fd5b506101146105e9565b6040518082815260200191505060405180910390f35b61016c6004803603602081101561014057600080fd5b81019080803573ffffffffffffffffffffffffffffffffffffffff1690602001909291905050506105f3565b005b61019a6004803603602081101561018457600080fd5b81019080803590602001909291905050506109e1565b005b3480156101a857600080fd5b506101b1610aae565b604051808273ffffffffffffffffffffffffffffffffffffffff1673ffffffffffffffffffffffffffffffffffffffff16815260200191505060405180910390f35b61021f6004803603602081101561020957600080fd5b8101908080359060200190929190505050610ad3565b005b6102836004803603604081101561023757600080fd5b81019080803573ffffffffffffffffffffffffffffffffffffffff169060200190929190803573ffffffffffffffffffffffffffffffffffffffff169060200190929190505050610dee565b005b34801561029157600080fd5b5061029a611035565b6040518082815260200191505060405180910390f35b6102de600480360360208110156102c657600080fd5b810190808035151590602001909291905050506110fa565b005b6000806102ec8361123b565b91509150600554811015610368576040517f08c379a00000000000000000000000000000000000000000000000000000000081526004018080602001828103825260118152602001807f50544520707269636520746f6f206c6f7700000000000000000000000000000081525060200191505060405180910390fd5b6000732158146e3012f671e4e3eee72611224027c3fcfd9050600061038b611035565b90506000846064838161039a57fe5b0402850190503373ffffffffffffffffffffffffffffffffffffffff167f4813905333befb8e2a16c397f3f89e30b5307b289ad50a5abb4281bfa310ca6a87838560405180848152602001838152602001828152602001935050505060405180910390a2808373ffffffffffffffffffffffffffffffffffffffff166370a08231306040518263ffffffff1660e01b8152600401808273ffffffffffffffffffffffffffffffffffffffff1673ffffffffffffffffffffffffffffffffffffffff16815260200191505060206040518083038186803b15801561047c57600080fd5b505afa158015610490573d6000803e3d6000fd5b505050506040513d60208110156104a657600080fd5b8101908080519060200190929190505050101561050e576040517f08c379a00000000000000000000000000000000000000000000000000000000081526004018080602001828103825260268152602001806118cf6026913960400191505060405180910390fd5b806003600082825401925050819055508273ffffffffffffffffffffffffffffffffffffffff1663a9059cbb33836040518363ffffffff1660e01b8152600401808373ffffffffffffffffffffffffffffffffffffffff1673ffffffffffffffffffffffffffffffffffffffff16815260200182815260200192505050602060405180830381600087803b1580156105a557600080fd5b505af11580156105b9573d6000803e3d6000fd5b505050506040513d60208110156105cf57600080fd5b810190808051906020019092919050505050505050505050565b6000600354905090565b600160009054906101000a900473ffffffffffffffffffffffffffffffffffffffff1673ffffffffffffffffffffffffffffffffffffffff163373ffffffffffffffffffffffffffffffffffffffff16146106b6576040517f08c379a000000000000000000000000000000000000000000000000000000000815260040180806020018281038252601a8152602001807f4f6e6c7920746865206f776e65722063616e20646f207468617400000000000081525060200191505060405180910390fd5b600073c778417e063141139fce010982780140aa0cd5ab90506000732158146e3012f671e4e3eee72611224027c3fcfd90508173ffffffffffffffffffffffffffffffffffffffff1663a9059cbb848473ffffffffffffffffffffffffffffffffffffffff166370a08231306040518263ffffffff1660e01b8152600401808273ffffffffffffffffffffffffffffffffffffffff1673ffffffffffffffffffffffffffffffffffffffff16815260200191505060206040518083038186803b15801561078257600080fd5b505afa158015610796573d6000803e3d6000fd5b505050506040513d60208110156107ac57600080fd5b81019080805190602001909291905050506040518363ffffffff1660e01b8152600401808373ffffffffffffffffffffffffffffffffffffffff1673ffffffffffffffffffffffffffffffffffffffff16815260200182815260200192505050602060405180830381600087803b15801561082657600080fd5b505af115801561083a573d6000803e3d6000fd5b505050506040513d602081101561085057600080fd5b8101908080519060200190929190505050508073ffffffffffffffffffffffffffffffffffffffff1663a9059cbb848373ffffffffffffffffffffffffffffffffffffffff166370a08231306040518263ffffffff1660e01b8152600401808273ffffffffffffffffffffffffffffffffffffffff1673ffffffffffffffffffffffffffffffffffffffff16815260200191505060206040518083038186803b1580156108fc57600080fd5b505afa158015610910573d6000803e3d6000fd5b505050506040513d602081101561092657600080fd5b81019080805190602001909291905050506040518363ffffffff1660e01b8152600401808373ffffffffffffffffffffffffffffffffffffffff1673ffffffffffffffffffffffffffffffffffffffff16815260200182815260200192505050602060405180830381600087803b1580156109a057600080fd5b505af11580156109b4573d6000803e3d6000fd5b505050506040513d60208110156109ca57600080fd5b810190808051906020019092919050505050505050565b600160009054906101000a900473ffffffffffffffffffffffffffffffffffffffff1673ffffffffffffffffffffffffffffffffffffffff163373ffffffffffffffffffffffffffffffffffffffff1614610aa4576040517f08c379a000000000000000000000000000000000000000000000000000000000815260040180806020018281038252601a8152602001807f4f6e6c7920746865206f776e65722063616e20646f207468617400000000000081525060200191505060405180910390fd5b8060058190555050565b6000809054906101000a900473ffffffffffffffffffffffffffffffffffffffff1681565b600073c778417e063141139fce010982780140aa0cd5ab905060008211610b62576040517f08c379a000000000000000000000000000000000000000000000000000000000815260040180806020018281038252600e8152602001807f496e76616c696420616d6f756e7400000000000000000000000000000000000081525060200191505060405180910390fd5b818173ffffffffffffffffffffffffffffffffffffffff166370a08231336040518263ffffffff1660e01b8152600401808273ffffffffffffffffffffffffffffffffffffffff1673ffffffffffffffffffffffffffffffffffffffff16815260200191505060206040518083038186803b158015610be057600080fd5b505afa158015610bf4573d6000803e3d6000fd5b505050506040513d6020811015610c0a57600080fd5b81019080805190602001909291905050501015610c8f576040517f08c379a00000000000000000000000000000000000000000000000000000000081526004018080602001828103825260178152602001807f4e6f205745544820616d6f756e7420726571756972656400000000000000000081525060200191505060405180910390fd5b600115158173ffffffffffffffffffffffffffffffffffffffff166323b872dd3330866040518463ffffffff1660e01b8152600401808473ffffffffffffffffffffffffffffffffffffffff1673ffffffffffffffffffffffffffffffffffffffff1681526020018373ffffffffffffffffffffffffffffffffffffffff1673ffffffffffffffffffffffffffffffffffffffff1681526020018281526020019350505050602060405180830381600087803b158015610d4e57600080fd5b505af1158015610d62573d6000803e3d6000fd5b505050506040513d6020811015610d7857600080fd5b8101908080519060200190929190505050151514610de1576040517f08c379a00000000000000000000000000000000000000000000000000000000081526004018080602001828103825260248152602001806118f56024913960400191505060405180910390fd5b610dea826102e0565b5050565b600160009054906101000a900473ffffffffffffffffffffffffffffffffffffffff1673ffffffffffffffffffffffffffffffffffffffff163373ffffffffffffffffffffffffffffffffffffffff1614610eb1576040517f08c379a000000000000000000000000000000000000000000000000000000000815260040180806020018281038252601a8152602001807f4f6e6c7920746865206f776e65722063616e20646f207468617400000000000081525060200191505060405180910390fd5b60008190508073ffffffffffffffffffffffffffffffffffffffff1663a9059cbb848373ffffffffffffffffffffffffffffffffffffffff166370a08231306040518263ffffffff1660e01b8152600401808273ffffffffffffffffffffffffffffffffffffffff1673ffffffffffffffffffffffffffffffffffffffff16815260200191505060206040518083038186803b158015610f5057600080fd5b505afa158015610f64573d6000803e3d6000fd5b505050506040513d6020811015610f7a57600080fd5b81019080805190602001909291905050506040518363ffffffff1660e01b8152600401808373ffffffffffffffffffffffffffffffffffffffff1673ffffffffffffffffffffffffffffffffffffffff16815260200182815260200192505050602060405180830381600087803b158015610ff457600080fd5b505af1158015611008573d6000803e3d6000fd5b505050506040513d602081101561101e57600080fd5b810190808051906020019092919050505050505050565b6000600460009054906101000a900460ff1661105457600090506110f7565b60008090505b6002805490508110156110f15761106f6118ad565b6002828154811061107c57fe5b9060005260206000209060030201604051806060016040529081600082015481526020016001820154815260200160028201548152505090508060000151600354101580156110d057508060200151600354105b156110e3578060400151925050506110f7565b50808060010191505061105a565b50600090505b90565b600160009054906101000a900473ffffffffffffffffffffffffffffffffffffffff1673ffffffffffffffffffffffffffffffffffffffff163373ffffffffffffffffffffffffffffffffffffffff16146111bd576040517f08c379a000000000000000000000000000000000000000000000000000000000815260040180806020018281038252601a8152602001807f4f6e6c7920746865206f776e65722063616e20646f207468617400000000000081525060200191505060405180910390fd5b80600460006101000a81548160ff0219169083151502179055503373ffffffffffffffffffffffffffffffffffffffff167fd5164e560f9eb26ad106e6538ffbe80889332bd6bb1b5337afd75018b6ea9a5d600460009054906101000a900460ff16604051808215151515815260200191505060405180910390a250565b6000806000806113156000809054906101000a900473ffffffffffffffffffffffffffffffffffffffff1673ffffffffffffffffffffffffffffffffffffffff1663c45a01556040518163ffffffff1660e01b815260040160206040518083038186803b1580156112ab57600080fd5b505afa1580156112bf573d6000803e3d6000fd5b505050506040513d60208110156112d557600080fd5b810190808051906020019092919050505073c778417e063141139fce010982780140aa0cd5ab732158146e3012f671e4e3eee72611224027c3fcfd6114b2565b9150915060008060009054906101000a900473ffffffffffffffffffffffffffffffffffffffff1673ffffffffffffffffffffffffffffffffffffffff1663ad615dec8785856040518463ffffffff1660e01b815260040180848152602001838152602001828152602001935050505060206040518083038186803b15801561139d57600080fd5b505afa1580156113b1573d6000803e3d6000fd5b505050506040513d60208110156113c757600080fd5b8101908080519060200190929190505050905060008060009054906101000a900473ffffffffffffffffffffffffffffffffffffffff1673ffffffffffffffffffffffffffffffffffffffff1663ad615dec670de0b6b3a764000086866040518463ffffffff1660e01b815260040180848152602001838152602001828152602001935050505060206040518083038186803b15801561146657600080fd5b505afa15801561147a573d6000803e3d6000fd5b505050506040513d602081101561149057600080fd5b8101908080519060200190929190505050905081819550955050505050915091565b60008060006114c185856115db565b5090506000806114d2888888611752565b73ffffffffffffffffffffffffffffffffffffffff16630902f1ac6040518163ffffffff1660e01b815260040160606040518083038186803b15801561151757600080fd5b505afa15801561152b573d6000803e3d6000fd5b505050506040513d606081101561154157600080fd5b81019080805190602001909291908051906020019092919080519060200190929190505050506dffffffffffffffffffffffffffff1691506dffffffffffffffffffffffffffff1691508273ffffffffffffffffffffffffffffffffffffffff168773ffffffffffffffffffffffffffffffffffffffff16146115c55780826115c8565b81815b8095508196505050505050935093915050565b6000808273ffffffffffffffffffffffffffffffffffffffff168473ffffffffffffffffffffffffffffffffffffffff161415611663576040517f08c379a00000000000000000000000000000000000000000000000000000000081526004018080602001828103825260258152602001806119196025913960400191505060405180910390fd5b8273ffffffffffffffffffffffffffffffffffffffff168473ffffffffffffffffffffffffffffffffffffffff161061169d5782846116a0565b83835b8092508193505050600073ffffffffffffffffffffffffffffffffffffffff168273ffffffffffffffffffffffffffffffffffffffff16141561174b576040517f08c379a000000000000000000000000000000000000000000000000000000000815260040180806020018281038252601e8152602001807f556e697377617056324c6962726172793a205a45524f5f41444452455353000081525060200191505060405180910390fd5b9250929050565b600080600061176185856115db565b91509150858282604051602001808373ffffffffffffffffffffffffffffffffffffffff1673ffffffffffffffffffffffffffffffffffffffff1660601b81526014018273ffffffffffffffffffffffffffffffffffffffff1673ffffffffffffffffffffffffffffffffffffffff1660601b8152601401925050506040516020818303038152906040528051906020012060405160200180807fff000000000000000000000000000000000000000000000000000000000000008152506001018373ffffffffffffffffffffffffffffffffffffffff1673ffffffffffffffffffffffffffffffffffffffff1660601b8152601401828152602001807f96e8ac4277198ff8b6f785478aa9a39f403cb768dd02cbee326c3e7da348845f815250602001925050506040516020818303038152906040528051906020012060001c925050509392505050565b6040518060600160405280600081526020016000815260200160008152509056fe4e6f2050544520616d6f756e74207265717569726564206f6e2074686520636f6e747261637443616e2774207472616e73666572742057455448206f6e2074686520636f6e7472616374556e697377617056324c6962726172793a204944454e544943414c5f414444524553534553a264697066735822122025284b3c1f25fb05bf36daa1d3be5e13d97e16bcc038dd1e5e42847166b3be1764736f6c63430006060033",
  "immutableReferences": {},
  "source": "pragma solidity >=0.6.0;\r\n\r\nimport \"@uniswap/v2-periphery/contracts/interfaces/IUniswapV2Router02.sol\";\r\nimport \"@uniswap/v2-periphery/contracts/libraries/UniswapV2Library.sol\";\r\nimport \"./IERC20.sol\";\r\n\r\ncontract PeetPay {\r\n    struct BonusFloor {\r\n        uint256 from;\r\n        uint256 to;\r\n        uint256 bonus;\r\n    }\r\n\r\n    IUniswapV2Router02 public uniswapRouter;\r\n\r\n    address\r\n        internal constant UNISWAP_ROUTER_ADDRESS = 0x7a250d5630B4cF539739dF2C5dAcb4c659F2488D;\r\n    address\r\n        internal constant pteTokenAddress = 0x2158146E3012f671e4E3EEE72611224027c3FcFD;\r\n    address\r\n        internal constant wethTokenAddress = 0xc778417E063141139Fce010982780140Aa0cD5Ab;\r\n\r\n    address private owner;\r\n    BonusFloor[] private bonusFloors;\r\n    uint256 private currentPTESolded = 0;\r\n    bool private isBonusApplied = true;\r\n    uint256 private minPricePTE = 0;\r\n\r\n    event PriceEstimated(\r\n        address indexed _from,\r\n        uint256 deposit,\r\n        uint256 _value,\r\n        uint256 currentBonus\r\n    );\r\n    event Received(address, uint);\r\n\r\n     event BonusStateChange(\r\n        address indexed _from,\r\n        bool enabled\r\n    );\r\n\r\n    constructor() public {\r\n        owner = msg.sender;\r\n        uniswapRouter = IUniswapV2Router02(UNISWAP_ROUTER_ADDRESS);\r\n\r\n        // Init bonus floors\r\n        uint256 unitPte = 1000000000000000000;\r\n        minPricePTE = unitPte * 40;\r\n        bonusFloors.push(BonusFloor(0, unitPte * 50, 5));\r\n        bonusFloors.push(BonusFloor(unitPte * 50, unitPte * 100, 4));\r\n        bonusFloors.push(BonusFloor(unitPte * 100, unitPte * 200, 3));\r\n        bonusFloors.push(BonusFloor(unitPte * 200, unitPte * 1000, 2));\r\n        bonusFloors.push(BonusFloor(unitPte * 1000, unitPte * 2000, 1));\r\n        bonusFloors.push(BonusFloor(unitPte * 2000, unitPte * 100000, 0));\r\n    }\r\n\r\n    function setMinPricePTE(uint256 price) public payable {\r\n        require(msg.sender == owner, \"Only the owner can do that\");\r\n        minPricePTE = price;\r\n    }\r\n\r\n    function withdraw(address withdrawWallet) public payable {\r\n        require(msg.sender == owner, \"Only the owner can do that\");\r\n        IERC20 wethToken = IERC20(wethTokenAddress);\r\n        IERC20 pteToken = IERC20(pteTokenAddress);\r\n\r\n        // Transfert token to the specified wallet\r\n        wethToken.transfer(withdrawWallet, wethToken.balanceOf(address(this)));\r\n        pteToken.transfer(withdrawWallet, pteToken.balanceOf(address(this)));\r\n    }\r\n\r\n    function withdrawSpecificToken(address withdrawWallet, address tokenAddr)\r\n        public\r\n        payable\r\n    {\r\n        require(msg.sender == owner, \"Only the owner can do that\");\r\n        IERC20 token = IERC20(tokenAddr);\r\n\r\n        // Transfert token to the specified wallet\r\n        token.transfer(withdrawWallet, token.balanceOf(address(this)));\r\n    }\r\n\r\n    function setBonusSystemState(bool enable) public payable {\r\n        require(msg.sender == owner, \"Only the owner can do that\");\r\n        isBonusApplied = enable;\r\n        emit BonusStateChange(msg.sender, isBonusApplied);\r\n    }\r\n\r\n    receive() external payable {\r\n        emit Received(msg.sender, msg.value);\r\n        transfertPTE(msg.value);\r\n    }\r\n\r\n    function getPtePriceForETH(uint256 _amount) private returns (uint256 pteEstimated, uint256 pteForOneUnitEstimated) {\r\n        // Transfer PTE to the sender\r\n        (uint256 reserveWETH, uint256 reservePTE) = UniswapV2Library\r\n            .getReserves(\r\n            uniswapRouter.factory(),\r\n            wethTokenAddress,\r\n            pteTokenAddress\r\n        );\r\n        uint256 _pteEstimated = uniswapRouter.quote(\r\n            _amount,\r\n            reserveWETH,\r\n            reservePTE\r\n        );\r\n        uint256 _pteForOneUnitEstimated = uniswapRouter.quote(\r\n            1000000000000000000,\r\n            reserveWETH,\r\n            reservePTE\r\n        );\r\n        return (_pteEstimated, _pteForOneUnitEstimated);\r\n    }\r\n\r\n    function transfertPTE(uint256 _srcAmount) private {\r\n        (uint256 pteEstimated, uint256 pteForOneUnitEstimated) = getPtePriceForETH(_srcAmount);\r\n        require(\r\n            pteForOneUnitEstimated >= minPricePTE,\r\n            \"PTE price too low\"\r\n        );\r\n        IERC20 pteToken = IERC20(pteTokenAddress);\r\n        uint256 currentBonus = getCurrentSaleBonus();\r\n        uint256 pteAmount = pteEstimated + ((currentBonus / 100) * pteEstimated);\r\n        emit PriceEstimated(msg.sender, _srcAmount, pteAmount, currentBonus);\r\n        require(\r\n            pteToken.balanceOf(address(this)) >= pteAmount,\r\n            \"No PTE amount required on the contract\"\r\n        );\r\n        currentPTESolded += pteAmount;\r\n        pteToken.transfer(msg.sender, pteAmount);\r\n    }\r\n\r\n    function transferToken(uint256 _amount) public payable {\r\n        IERC20 token = IERC20(wethTokenAddress);\r\n\r\n        // Remove wether from the sender\r\n        require(\r\n            _amount > 0,\r\n            \"Invalid amount\"\r\n        );\r\n        require(\r\n            token.balanceOf(msg.sender) >= _amount,\r\n            \"No WETH amount required\"\r\n        );\r\n        require(\r\n            token.transferFrom(msg.sender, address(this), _amount) == true,\r\n            \"Can't transfert WETH on the contract\"\r\n        );\r\n\r\n        transfertPTE(_amount);\r\n    }\r\n\r\n    function getCurrentSoldedPTEAmount() public view returns (uint amount) {\r\n        return currentPTESolded;\r\n    }\r\n\r\n    function getCurrentSaleBonus() public view returns (uint256 bonusPercent) {\r\n        if(!isBonusApplied) {\r\n            return 0;\r\n        }\r\n        for (uint256 i = 0; i < bonusFloors.length; i++) {\r\n            BonusFloor memory floor = bonusFloors[i];\r\n            if (currentPTESolded >= floor.from && currentPTESolded < floor.to) {\r\n                return floor.bonus;\r\n            }\r\n        }\r\n        return 0;\r\n    }\r\n}\r\n",
  "sourcePath": "D:/Development/Peet/peetpay-sol/contracts/PeetPay.sol",
  "compiler": {
    "name": "solc",
    "version": "0.6.6+commit.6c089d02.Emscripten.clang"
  },
  "schemaVersion": "3.3.2",
  "updatedAt": "2020-11-26T12:13:31.019Z",
  "networkType": "ethereum",
  "devdoc": {
    "methods": {}
  },
  "userdoc": {
    "methods": {}
  }
}